:020000040000FA
:100000000C945D000C9485000C9485000C94850084
:100010000C9485000C9485000C9485000C9485004C
:100020000C9485000C9485000C9485000C9485003C
:100030000C9485000C9485000C9485000C9485002C
:100040000C949B070C9485000C9469070C9443074F
:100050000C9485000C9485000C9485000C9485000C
:100060000C94E5070C9485000000000800020100D4
:100070000003040700000000000000000000000072
:10008000250028002B0000000000240027002A0083
:10009000040404040404040402020202020203032E
:1000A0000303030301020408102040800102040836
:1000B0001020010204081020040911241FBECFEFF4
:1000C000D8E0DEBFCDBF11E0A0E0B1E0E4E2FAE1AC
:1000D00002C005900D92A835B107D9F723E0A8E535
:1000E000B1E001C01D92AD30B207E1F710E0CDE5FF
:1000F000D0E004C02197FE010E940A0DCC35D10743
:10010000C9F70E9467090C94100D0C94000091E04F
:10011000909345028093440210924302109242024F
:10012000089590E0FC01EC55FF4F249180579F4FBC
:10013000FC018491882399F090E0880F991FFC01BD
:10014000EA57FF4FA591B491FC01E458FF4F859108
:1001500094918FB7F894EC91E22BEC938FBF0895B4
:1001600008950895AF92BF92CF92DF92EF92FF92DF
:100170000F931F93CF93DF936C017B018B01040FCF
:10018000151FEB015E01AE18BF08C017D10759F06B
:100190006991D601ED91FC910190F081E02DC601AD
:1001A0000995892B79F7C501DF91CF911F910F91A7
:1001B000FF90EF90DF90CF90BF90AF900895FC013B
:1001C000538D448D252F30E0842F90E0821B930BBC
:1001D000541710F0CF96089501970895FC01918D62
:1001E000828D981761F0A28DAE0FBF2FB11D5D9665
:1001F0008C91928D9F5F9F73928F90E008958FEF07
:100200009FEF0895FC01918D828D981731F0828DBA
:10021000E80FF11D858D90E008958FEF9FEF089511
:10022000FC01918D228D892F90E0805C9F4F821B75
:1002300091098F739927089586E492E00E94100136
:1002400021E0892B09F420E0822F089580E090E0DE
:10025000892B29F00E941C0181110C940000089543
:10026000FC01A48DA80FB92FB11DA35ABF4F2C912B
:10027000848D90E001968F739927848FA689B78922
:100280002C93A089B1898C91837080648C93938D19
:10029000848D981306C00288F389E02D80818F7DBC
:1002A00080830895EF92FF920F931F93CF93DF9374
:1002B000EC0181E0888F9B8D8C8D98131AC0E889A2
:1002C000F989808185FF15C09FB7F894EE89FF8971
:1002D0006083E889F98980818370806480839FBF0F
:1002E00081E090E0DF91CF911F910F91FF90EF900F
:1002F0000895F62E0B8D10E00F5F1F4F0F7311271F
:10030000E02E8C8D8E110CC00FB607FCFACFE88959
:10031000F989808185FFF5CFCE010E943001F1CFB0
:10032000EB8DEC0FFD2FF11DE35AFF4FF0829FB7CD
:10033000F8940B8FEA89FB8980818062CFCFCF93BD
:10034000DF93EC01888D8823B9F0AA89BB89E889FD
:10035000F9898C9185FD03C0808186FD0DC00FB6A3
:1003600007FCF7CF8C9185FFF2CF808185FFEDCF21
:10037000CE010E943001E9CFDF91CF91089590E046
:10038000FC01E859FF4F2491FC01EC55FF4F3491DB
:10039000FC01E057FF4FE491EE23C9F0222339F02E
:1003A000233001F1A8F4213019F1223029F1F0E0D5
:1003B000EE0FFF1FE458FF4FA591B4918FB7F8944B
:1003C000EC91611126C030953E233C938FBF089578
:1003D0002730A9F02830C9F0243049F780918000F7
:1003E0008F7D03C0809180008F7780938000DFCF66
:1003F00084B58F7784BDDBCF84B58F7DFBCF8091B3
:10040000B0008F778093B000D2CF8091B0008F7D05
:10041000F9CF3E2BDACF3FB7F8948091CC01909181
:10042000CD01A091CE01B091CF0126B5A89B05C00A
:100430002F3F19F00196A11DB11D3FBFBA2FA92F63
:10044000982F8827BC01CD01620F711D811D911D60
:1004500042E0660F771F881F991F4A95D1F70895CC
:1004600008952091A401260F3327331F213231052F
:10047000ECF420911C02FC0190E080E0243069F053
:1004800082E00895A091A4012191AC014C575E4FE8
:10049000A40FB52FB11D2C930196861798F3809168
:1004A000A401680F6093A40180E0089581E008959D
:1004B00010921C0281E080931B021092F60161E011
:1004C00082E10E94BF0161E083E10E94BF01E9EB8C
:1004D000F0E080818E7F808380818D7F808388E4BF
:1004E0008093B80085E48093BC000895CF93DF9398
:1004F00091E0909383018823B9F0C091B800D09126
:10050000BA008091BC008A7B8093BC0060E082E1ED
:100510000E94BF0160E083E10E94BF010E94580277
:10052000D093BA00C093B800DF91CF910895CF92D5
:10053000DF92EF92FF920F931F93CF93DF93D091AF
:10054000420281E0D13208F09CC0C09144020E9476
:100550000B026B017C0180911C0281116CC082E056
:1005600080931C0281E080931B028FEF80931A021C
:1005700010921902D0931802A2E2B2E0E8EFF1E083
:1005800080E0D8138DC01092F7018091F701CC0F55
:10059000C82BC093F7018091F601813009F084C027
:1005A0001092F6010E940B026B017C018091F70111
:1005B0008093BB0080911E0290911F02A0912002A7
:1005C000B0912102892B8A2B8B2BA1F00E940B0268
:1005D00000911E0210911F022091200230912102F1
:1005E0006C197D098E099F09061717072807390717
:1005F00008F442C08091BC0083FDD8CF85EC809385
:10060000BC000E940B026B017C0180911C028230B5
:1006100009F44CC080911A028F3F09F469C080919F
:100620001A02803209F466C080911A02803309F4FC
:1006300063C084E026C080911E0290911F02A091A9
:100640002002B0912102892B8A2B8B2B09F483CFB6
:100650000E940B0200911E0210911F0220912002A5
:10066000309121026C197D098E099F090617170721
:100670002807390708F06FCF80911D020E9476028B
:1006800085E0109243021092420210924502DF91DF
:10069000CF911F910F91FF90EF90DF90CF90089531
:1006A0009D9191938F5F6DCF85EEA9CF80911E02B2
:1006B00090911F02A0912002B0912102892B8A2BD8
:1006C0008B2B09F4A2CF0E940B0200911E02109105
:1006D0001F0220912002309121026C197D098E09A0
:1006E0009F09061717072807390708F08ECFC4CFD0
:1006F00080E0C7CF82E0C5CF83E0C3CF0895E0910B
:10070000D5018091D401E81730F4F0E0EA52FE4FB1
:10071000808190E008958FEF9FEF08959091D5012B
:100720008091D4012FEF3FEF981748F4E92FF0E0C4
:10073000EA52FE4F208130E09F5F9093D501C901BE
:1007400008958091D4019091D501891B990B08954A
:10075000CF92DF92EF92FF920F931F93CF93DF938D
:100760007C01CB018A0120914502222389F0EB0113
:100770006B01C40ED51ECC15DD0569F06991D7015A
:10078000ED91FC910190F081E02DC7010995F3CF27
:10079000642F0E943102C801DF91CF911F910F9108
:1007A000FF90EF90DF90CF900895CF93DF931F924B
:1007B000CDB7DEB76983209145022223F9F020915D
:1007C0004202203258F021E030E0FC0133832283E2
:1007D00090E080E00F90DF91CF91089580914302E7
:1007E000E82FF0E0EE5DFD4F998190838F5F80935D
:1007F00043028093420281E090E0ECCF61E0CE01C1
:1008000001960E943102F7CF682F83EE92E00C949C
:10081000D503CF93DF93D62FC72FFC018081806251
:100820000E94870082E10E9404048D2F0E9404042C
:100830008C2F0E940404DF91CF910C94970290E0DA
:1008400080E00895FC0101900020E9F73197AF01A5
:10085000481B590BBC0186E492E00C94B200CF9384
:10086000DF93D0E0C0E0009719F00E942204EC0171
:1008700084E491E00E9422048C0F9D1FDF91CF91B0
:1008800008958F929F92AF92BF92CF92DF92EF9294
:10089000FF921F93CF93DF93D82F162F0E940B0246
:1008A0006B017C0180911C02811166C0C12F81E027
:1008B00080931C0280931B029FEF90931A02109268
:1008C0001902910F909318028093F7018091F7011C
:1008D000DD0FD82BD093F7018091F601813009F01C
:1008E00082C01092F6010E940B026B017C01809184
:1008F000F7018093BB0080911E0290911F02A0918E
:100900002002B0912102892B8A2B8B2BA1F00E940F
:100910000B0280901E0290901F02A0902002B090C7
:1009200021026C197D098E099F0986169706A80673
:10093000B90608F442C08091BC0083FDD8CF85EC95
:100940008093BC000E940B026B017C0180911C0211
:10095000813009F44AC080911902811710F4C091C6
:100960001902A8EFB1E0E6EDF1E080E08C1751F15B
:100970009D9191938F5FFACF80911E0290911F02FB
:10098000A0912002B0912102892B8A2B8B2B09F494
:1009900089CF0E940B0280901E0290901F02A090AF
:1009A0002002B09021026C197D098E099F098616DC
:1009B0009706A806B90608F075CF80911D020E941F
:1009C0007602C0E01092D501C093D4018C2FDF9144
:1009D000CF911F91FF90EF90DF90CF90BF90AF909D
:1009E0009F908F90089585EEABCF80911E029091DD
:1009F0001F02A0912002B0912102892B8A2B8B2B00
:100A000009F4A4CF0E940B0280901E0290901F0256
:100A1000A0902002B09021026C197D098E099F09D7
:100A200086169706A806B90608F090CFC6CFEF92B3
:100A3000FF920F931F93CF93DF938C01C62FE42E69
:100A400084E1F82ED2E1683020F0C85095E1F92E0B
:100A5000D3E1F801808180620E9487008F2D0E947F
:100A600004040E949702F8018081806261E070E0D6
:100A700090E00E94410483EE92E00E948E0321E008
:100A800030E001C0220FCA95EAF7F1E0C82FC22B6F
:100A9000EF1619F02095C22FC823F80180818062DB
:100AA0000E9487008D2F0E9404048C2F0E94040452
:100AB000DF91CF911F910F91FF90EF900C949702CF
:100AC000FC01962F828D8F3F31F0603140F4CF01D1
:100AD0004B960C941705642F892F0C94BF01089531
:100AE000FF920F931F93CF93DF938C01C62FF42EA9
:100AF000D0E0683010F0C850D1E0F8018081806209
:100B00000E9487008D2F0E9404040E949702F80122
:100B10008081806261E070E090E00E94410483EE99
:100B200092E00E948E0321E030E001C0220FCA95BE
:100B3000EAF7C82FC22BFF2019F02095C22FC82337
:100B4000F801808180620E9487008D2F0E9404043A
:100B50008C2F0E940404DF91CF911F910F91FF9081
:100B60000C949702603110F40C9470050895CF93A3
:100B7000DF93EC0140E06E810E94600541E06E81F0
:100B8000CE010E94600540E06E81CE010E946005AA
:100B90008BE891E00197F1F7DF91CF910895AF9243
:100BA000BF92CF92DF92EF92FF920F931F93CF935A
:100BB000DF93EC018A8D8E01095F1F4FC62ED12C69
:100BC0008F3F09F480C07E018BE1E80EF11C8B8D14
:100BD00080620E94870082E10E9404040E949702C2
:100BE0008B8D806262E070E090E00E94410483EEB1
:100BF00092E00E948E03B82E83EE92E00E948E0354
:100C000060E0782FCB018B29F80130E020E001E093
:100C100010E04191B801042E02C0660F771F0A94BC
:100C2000E2F76095709586239723B601022E02C0E5
:100C3000759567950A94E2F76170772702C0660F91
:100C4000771F4A95E2F7862B972B2F5F3F4F243073
:100C50003105F9F62E81680102C0CC0CDD1C2A9505
:100C6000E2F7C094D094C822D922B601C7010E94ED
:100C700009048E81B80102C0660F771F8A95E2F7DA
:100C8000C62AD72AB601C7010E9409048E81B8017D
:100C900002C0660F771F8A95E2F7609570956C2108
:100CA0007D21C7010E9409048BE891E00197F1F7CB
:100CB000DF91CF911F910F91FF90EF90DF90CF9038
:100CC000BF90AF900895F12CE12C5E01EBE1AE0EE8
:100CD000B11CF80181918F019A8D9F3F39F141E05C
:100CE000682FC5010E94B205A6010E2C02C05595C1
:100CF00047950A94E2F74170F80131976081CE017F
:100D00000E946005FFEFEF1AFF0A84E0E816F10485
:100D100001F7CE01DF91CF911F910F91FF90EF90DE
:100D2000DF90CF90BF90AF900C94B7050E949100D8
:100D3000DBCFAF92BF92CF92DF92EF92FF920F93F1
:100D40001F93CF93DF93EC01F62E6C810E94600518
:100D50006D816F3F21F040E0CE010E9460050F2DB4
:100D600010E08C8984FF3AC06E0187E0C80ED11C68
:100D7000F12CE12C5E01EBE1AE0EB11CF60181918C
:100D80006F019A8D9F3F39F141E0682FC5010E94A4
:100D9000B205A8010E2C02C0559547950A94E2F7BA
:100DA0004170F60131976081CE010E946005FFEF2E
:100DB000EF1AFF0A88E0E816F10401F7CE01DF918F
:100DC000CF911F910F91FF90EF90DF90CF90BF9048
:100DD000AF900C94B7050E949100DBCFB80184E07E
:100DE000759567958A95E1F7CE010E94CF056F2D25
:100DF000CE01DF91CF911F910F91FF90EF90DF9087
:100E0000CF90BF90AF900C94CF0541E00E9499061F
:100E100081E090E0089585ED8093BC0080911E02F2
:100E200090911F02A0912002B09121020796A11D6E
:100E3000B11D23E0B695A795979587952A95D1F78B
:100E40002091BC0024FD03C010921C020895409123
:100E50001E0250911F026091200270912102452BC9
:100E6000462B472B69F30097A105B10541F025E317
:100E70002A95F1F700000197A109B109E1CF80910E
:100E80001D020C9476021F920F920FB60F9211243E
:100E90002F933F934F935F936F937F938F939F9382
:100EA000AF93BF93EF93FF9386E492E00E943001EB
:100EB000FF91EF91BF91AF919F918F917F916F9132
:100EC0005F914F913F912F910F900FBE0F901F9008
:100ED00018951F920F920FB60F9211242F938F9394
:100EE0009F93EF93FF93E0915602F0915702808118
:100EF000E0915C02F0915D0282FD1BC090818091C7
:100F00005F028F5F8F7320916002821741F0E09142
:100F10005F02F0E0EA5BFD4F958F80935F02FF91E7
:100F2000EF919F918F912F910F900FBE0F901F9077
:100F300018958081F4CF1F920F920FB60F92112453
:100F40002F933F938F939F93AF93BF938091C8014B
:100F50009091C901A091CA01B091CB013091C70114
:100F600023E0230F2D3758F50196A11DB11D2093C5
:100F7000C7018093C8019093C901A093CA01B0939F
:100F8000CB018091CC019091CD01A091CE01B09187
:100F9000CF010196A11DB11D8093CC019093CD018D
:100FA000A093CE01B093CF01BF91AF919F918F914C
:100FB0003F912F910F900FBE0F901F90189526E82C
:100FC000230F0296A11DB11DD2CF1F920F920FB613
:100FD0000F9211242F933F934F935F936F937F93BF
:100FE0008F939F93AF93BF93EF93FF938091B9003B
:100FF000887F803609F44AC0F0F5883209F4A7C02A
:1010000018F5803109F49BC0B8F4882309F4F9C0BD
:10101000883009F494C0FF91EF91BF91AF919F91F7
:101020008F917F916F915F914F913F912F910F9091
:101030000FBE0F901F901895883109F488C0803238
:1010400051F780931A0214C0803409F49DC040F413
:101050008033B9F38833F9F680931A0285ECB0C077
:10106000803509F485C0883509F496C0883499F62E
:101070000E940B07D0CF883909F48CC038F5883727
:1010800029F050F4883611F0803729F683E08093F8
:101090001C021092C60157C0883809F47BC0803901
:1010A00019F0803809F0B7CF8091C601803208F07E
:1010B00071C0E091C60181E08E0F8093C6018091DE
:1010C000BB00F0E0EA55FE4F80833DC0803B39F025
:1010D000E0F4803A09F479C0883A09F09CCF84E0C2
:1010E00080931C021092A5011092A401E091D201FC
:1010F000F091D30109958091A40181110FC081E085
:101100008093A4011092840109C0803C09F4A6CF09
:10111000883C09F4A3CF883B09F07DCFE091A5017D
:1011200081E08E0F8093A501F0E0EC57FE4F8081A7
:101130008093BB009091A5018091A40129C080916A
:10114000F7018093BB0085EC8093BC0064CF909145
:10115000190280911802981758F5E091190281E060
:101160008E0F80931902F0E0E850FE4F8081E9CFA6
:10117000E091190281E08E0F809319028091BB00EB
:10118000F0E0E850FE4F80839091190280911802A0
:101190009817C8F285E8D8CFE091190281E08E0F48
:1011A000809319028091BB00F0E0E850FE4F8083ED
:1011B00080911B0281115CCF81E08093F60184EA6B
:1011C0008093BC0010921C0226CF85EC8093BC005B
:1011D00010921C028091C601803230F4E091C60169
:1011E000F0E0EA55FE4F10826091C60170E0E09198
:1011F000D001F091D10186EA91E009951092C601E3
:101200000ACF10921A0234CFE6E4F2E0138212827F
:1012100088EE93E0A0E0B0E084839583A683B78353
:1012200028E131E03183208325EC30E035872487C5
:1012300024EC30E03787268720EC30E0318B208BA0
:1012400021EC30E0338B228B22EC30E0358B248B89
:1012500026EC30E0378B268B118E128E138E148E77
:10126000E3EEF2E01382128284839583A683B78330
:101270008AE291E091838083E1EFF2E013821282AF
:101280008CE391E091838083128E148A8FE08483B3
:101290008EE085838DE086838CE087838BE080877A
:1012A0008AE0818789E08287178681E0808B82E0EF
:1012B000818B83E0828B84E0838B90E080E00E94CE
:1012C000D20C90E09093F0028093EF020895CF93B8
:1012D000DF93CDB7DEB7CB56D1090FB6F894DEBF9A
:1012E0000FBECDBF789484B5826084BD84B5816023
:1012F00084BD85B5826085BD85B5816085BD8091E1
:101300006E00816080936E00109281008091810058
:101310008260809381008091810081608093810050
:10132000809180008160809380008091B100846012
:101330008093B1008091B00081608093B000809173
:101340007A00846080937A0080917A008260809332
:101350007A0080917A00816080937A0080917A008F
:10136000806880937A001092C100E0915602F0915B
:10137000570282E08083E0915202F0915302108282
:10138000E0915402F09155028FEC808310925E023E
:10139000E0915A02F0915B0286E08083E09158026E
:1013A000F0915902808180618083E0915802F09130
:1013B0005902808188608083E0915802F09159023F
:1013C000808180688083E0915802F0915902808189
:1013D0008F7D808380910B038F3F09F4CEC01092E4
:1013E000D5011092D40110924302109242020E9441
:1013F000580280EB90E09093D3018093D20181EB6F
:1014000090E09093D1018093D00110920C030E9440
:10141000580280910C0380620E94870080E00E9445
:1014200004048FEF0E9404040E94970280910C0331
:1014300080620E94870081E00E9404048FEF0E9476
:1014400004040E94970241E068E08CE093E00E946F
:10145000700541E066E08CE093E00E94700541E099
:1014600067E08CE093E00E94700540E068E08CE06B
:1014700093E00E94170540E067E08CE093E00E9453
:10148000170540E066E08CE093E00E94170560914C
:10149000F602662329F041E08CE093E00E94B20559
:1014A00041E06091F5028CE093E00E94B20541E0DA
:1014B0006091F7028CE093E00E94B20538EFE32ED2
:1014C00032E0F32E01EF12E04CEFC42E42E0D42EB6
:1014D000D7016D917D0141E08CE093E00E94B2055F
:1014E000CE14DF04A9F726EFC22E22E0D22E40E070
:1014F000F80167858CE093E00E94B205D8011F9641
:10150000FC90BFE0BF1598F1E7E08CE0E82EEF1506
:1015100020F4F8EFFF0E9DE0E92E80910C0380622D
:101520000E9487008E2D0E9404040E9497028091E1
:101530000C03806261E070E090E00E94410483EE61
:1015400092E00E948E03B82E80910C0380620E946C
:1015500087008E2D0E94040481E090E001C0880F76
:10156000FA94EAF78B290E9404040E9497020F5F05
:101570001F4FC016D10609F0BACF809105038860CD
:101580008093050382E08093090310920A038BE3A2
:101590009DE00197F1F740E06091F50281EF92E064
:1015A0000E94600540E06091F70281EF92E00E94A6
:1015B00060056091F6026F3F29F040E081EF92E014
:1015C0000E9460056091050364FD78C163E081EFCE
:1015D00092E00E94CF050BE416E4C8010197F1F7F1
:1015E00063E081EF92E00E94CF05C8010197F1F717
:1015F00063E081EF92E00E94CF0583E592E00197DE
:10160000F1F762E081EF92E00E94CF05609105035F
:10161000606240E081EF92E00E94990684E080934E
:10162000060340E06CE081EF92E00E94990640E002
:1016300061E081EF92E00E9499068BE39FE10197C0
:10164000F1F782E08093070340E066E081EF92E0EB
:101650000E949906E090EF02F090F00282E591E09E
:10166000E114F10409F058C18DB79EB7AC969FAF55
:101670008EAFAC97BE01635A7F4FDB0114961C926C
:10168000149786E48C9327E4D22E1196DC9211975E
:101690008FE412968C9312978DE213968C939E0191
:1016A0002E5A3F4FF9011582148241E3C42EC082A5
:1016B00052E35183A2E49A2E9282B0E5AB2EA3822C
:1016C00084833D9716829BE4908318E4B12EB18207
:1016D0009CE4928343E34383B4E3B48385838E0124
:1016E0000A591F4FD80113961C921E921297DC9232
:1016F0000F2EF2E5DF2EF02D1196DC921197129647
:101700008C933E01BCE46B0E711CD30115961C92A8
:101710001E9214979C930F2EF1E48F2EF02D1196AC
:101720008C9211971296BC9212970F2EF7E5BF2E4E
:10173000F02D1396BC92139714968C931DAE1CAE8D
:10174000ADE48A2E8EAAB3E48B2E8FAAA4E48A2E4F
:1017500088AE99AEAAAEBBAE8CAF25961FAE2597CC
:10176000CEAE5FAF21964FAF219722969FAF2297C3
:101770002396DFAE239724968FAF2497AE01485A65
:101780005F4FDA0114961C921497CC920F2EF0E35F
:10179000CF2EF02D1196CC92119712969C93129702
:1017A00013968C93CE018E599F4FDC0113961C9299
:1017B0001E9212970F2EF4E5CF2EF02DCC9211969B
:1017C000DC9211970F2EF8E7DF2EF02D1296DC92A7
:1017D0007BA36AA33DA32CA3FFA3EEA319A708A78D
:1017E0007BA66AA62C5131093DA72CA7285F3F4F45
:1017F0003FA72EA759AB48AB9BAB8AAB1DAA1CAA2F
:1018000061E090E080E00E94DA0C6E01B2E2CB0E63
:10181000D11C1E01E4E32E0E311C27010F2C000CFD
:10182000660877088701F601A081B181FD0101906A
:101830000020E9F73197EA1BFB0B48018E189F083F
:101840008E169F0608F05BC00F5F1F4F8A0E9B1E0F
:10185000D4016C91C8010E94DA0CBFEF4B1A5B0AED
:101860006B0A7B0A19A2A30192015E01E1E2AE0EAE
:10187000B11CCA01B9012AE030E040E050E00E940A
:10188000E80C605DD5016E935D01211531054105C0
:10189000510579F7109719F0CD010E94220487E4D1
:1018A00091E00E942204F401608186E492E00E94AB
:1018B000520184E491E00E942204B5CF606240E0CE
:1018C00081EF92E00E9499068BE496E40197F1F78C
:1018D00060910503606240E081EF92E00E9499060A
:1018E00083E592E00197F1F760910503606240E0C3
:1018F00081EF92E00E94990689CE78018ECFF2E0C6
:10190000CF0ED11CC214D304C1F70FB6F894DEBFBA
:101910000FBECDBF8DE491E00E942F0480E0C82E61
:1019200081E0D82E92E1892E91E0992E760101E096
:1019300010E0B12CA12C3801C8010E94D20C0F5F1D
:101940001F4F8D3291F0C3010E94D20C883769F08D
:10195000C3010E94D20CD701ED91FC91EA0DFB1D51
:101960008083BFEFAB1ABB0AE6CFE2E0EE0EF11CBC
:101970008E149F04F1F604E111E0D6018D919D9142
:101980006D010E942F040C151D05B9F700E010E051
:1019900001151105E9F30E941C018823C9F30E9477
:1019A0000000F6CFF999FECF92BD81BDF89A992734
:1019B00080B50895262FF999FECF1FBA92BD81BD3B
:1019C00020BD0FB6F894FA9AF99A0FBE01960895C1
:1019D000A1E21A2EAA1BBB1BFD010DC0AA1FBB1F33
:1019E000EE1FFF1FA217B307E407F50720F0A21BA5
:1019F000B30BE40BF50B661F771F881F991F1A9412
:101A000069F760957095809590959B01AC01BD013B
:101A1000CF010895EE0FFF1F0590F491E02D09947A
:101A2000F894FFCF7F017A01740171016C016501A7
:101A30005F015B0158010000000000005201B2008C
:101A4000DF009F011001EE00020100000000D5033D
:101A5000A8031F047E03A1038E037F030000000080
:101A60000507B2001F0430020D0A002020202020AC
:0C1A700000646F6E650056414C49440054
:107E0000112484B714BE81FFF0D085E080938100F7
:107E100082E08093C00088E18093C10086E0809377
:107E2000C20080E18093C4008EE0C9D0259A86E02C
:107E300020E33CEF91E0309385002093840096BBD3
:107E4000B09BFECF1D9AA8958150A9F7CC24DD24C4
:107E500088248394B5E0AB2EA1E19A2EF3E0BF2EE7
:107E6000A2D0813461F49FD0082FAFD0023811F036
:107E7000013811F484E001C083E08DD089C08234E0
:107E800011F484E103C0853419F485E0A6D080C0E4
:107E9000853579F488D0E82EFF2485D0082F10E0AE
:107EA000102F00270E291F29000F111F8ED06801E7
:107EB0006FC0863521F484E090D080E0DECF843638
:107EC00009F040C070D06FD0082F6DD080E0C81688
:107ED00080E7D80618F4F601B7BEE895C0E0D1E017
:107EE00062D089930C17E1F7F0E0CF16F0E7DF06D8
:107EF00018F0F601B7BEE89568D007B600FCFDCFD4
:107F0000A601A0E0B1E02C9130E011968C91119780
:107F100090E0982F8827822B932B1296FA010C0160
:107F200087BEE89511244E5F5F4FF1E0A038BF0790
:107F300051F7F601A7BEE89507B600FCFDCF97BE46
:107F4000E89526C08437B1F42ED02DD0F82E2BD052
:107F50003CD0F601EF2C8F010F5F1F4F84911BD097
:107F6000EA94F801C1F70894C11CD11CFA94CF0C13
:107F7000D11C0EC0853739F428D08EE10CD085E9AC
:107F80000AD08FE07ACF813511F488E018D01DD067
:107F900080E101D065CF982F8091C00085FFFCCF94
:107FA0009093C60008958091C00087FFFCCF809118
:107FB000C00084FD01C0A8958091C6000895E0E648
:107FC000F0E098E1908380830895EDDF803219F02E
:107FD00088E0F5DFFFCF84E1DECF1F93182FE3DFCA
:107FE0001150E9F7F2DF1F91089580E0E8DFEE27F6
:047FF000FF270994CA
:027FFE00040479
:00000001FF
